:020000020000FC
:0200000033C00B
:02002C009EC074
:02001000ADC081
:10006800CC24DD24EE242227BB2460E03B9A3A9A74
:10007800429838983998409A419A5098519852988D
:1000880053985498559856985798589A599A5A9AEE
:100098005B9A5C9A5D9A5E9A5F9A07E004B907E0FA
:1000A80005B900E10093880000E00093890001E8A9
:1000B80008600093810000916F00026002E00093E5
:1000C800680001E000936C00F1E0E2E982E096EE5E
:1000D80078940000FECF70E0671749F470EEE716D9
:1000E80049F461E0F2E0E6EE82E09EEF1DC072E0C6
:1000F800671729F070EFE71611F462E015C07491E4
:100108007E1531F03496F817D1F7E917C1F706C014
:10011800319644910AD03196449107D0F1E0E2E952
:1001280082E096EE60E000C008954F3351F072E02F
:10013800671721F04064439805D008954F7B439A90
:1001480001D0089508E02998289840FD2A9A40FF90
:100158002A984695299A0A952998B9F7289A2A98A3
:100168000895189516B110FD1895203031F02930F2
:1001780024F4889411FD0894D79423952B3024F007
:10018800ED2C2227DD24A7DF1895013F3F00033F10
:100198003F00043F3F00053F3F00063F3F0007295F
:1001A8003F00093F3F000A283F000B3F3F000C3F3C
:1001B8003F000D3F3F000E3F3F00113F3F00120040
:1001C8003F00143F3F0015023F0016033F001A0886
:1001D8003F001B093F001C013F001D0A3F001E0B8A
:1001E8003F0021183F0022103F0023113F00241236
:1001F8003F00251B3F0026133F0029073F002A2008
:100208003F002B193F002C223F002D1A3F002E23C0
:100218003F00311F3F0032273F0033263F00342183
:100228003F0035253F0036243F003A173F003B1E6C
:100238003F003C1D3F003D1C3F003E143F00410F66
:100248001F0042163F0043153F00440D3F00450480
:100258003F00460C3F00490F17004A0F20004B0E85
:100268003F004C0F0D004D053F004E0F1E00520F72
:100278000500543F3F00550F0E00583F3F00590FEF
:100288003F005A063F005B3F3F005D0F20006600BD
:10029800040069033F006B1B3F006C1C3F007004A7
:1002A8003F00710F1700720B3F0073233F00742447
:1002B8003F0075143F0076000300773F3F00783F0A
:1002C8003F00790F16007A133F007B0F1E007C0F4A
:1002D80027007D0C3F007E3F3F00833F3F007500B5
:1002E8001C006B00230072002400740014004A0FE5
:0A02F80020005A063F00000000003D
:00000001FF
